{
  "contractName": "EventEmitter",
  "abi": [
    {
      "inputs": [
        {
          "internalType": "uint8",
          "name": "uintValue",
          "type": "uint8"
        },
        {
          "internalType": "bool",
          "name": "booleanValue",
          "type": "bool"
        },
        {
          "internalType": "string",
          "name": "stringValue",
          "type": "string"
        }
      ],
      "payable": false,
      "stateMutability": "nonpayable",
      "type": "constructor"
    },
    {
      "anonymous": false,
      "inputs": [
        {
          "indexed": false,
          "internalType": "address",
          "name": "value",
          "type": "address"
        }
      ],
      "name": "Address",
      "type": "event"
    },
    {
      "anonymous": false,
      "inputs": [],
      "name": "Argumentless",
      "type": "event"
    },
    {
      "anonymous": false,
      "inputs": [
        {
          "indexed": false,
          "internalType": "bool",
          "name": "value",
          "type": "bool"
        }
      ],
      "name": "Boolean",
      "type": "event"
    },
    {
      "anonymous": false,
      "inputs": [
        {
          "indexed": false,
          "internalType": "bytes",
          "name": "value",
          "type": "bytes"
        }
      ],
      "name": "Bytes",
      "type": "event"
    },
    {
      "anonymous": false,
      "inputs": [
        {
          "indexed": false,
          "internalType": "int256",
          "name": "value",
          "type": "int256"
        }
      ],
      "name": "LongInt",
      "type": "event"
    },
    {
      "anonymous": false,
      "inputs": [
        {
          "indexed": false,
          "internalType": "uint256",
          "name": "value",
          "type": "uint256"
        }
      ],
      "name": "LongUint",
      "type": "event"
    },
    {
      "anonymous": false,
      "inputs": [
        {
          "indexed": false,
          "internalType": "uint256",
          "name": "uintValue",
          "type": "uint256"
        },
        {
          "indexed": false,
          "internalType": "bool",
          "name": "booleanValue",
          "type": "bool"
        },
        {
          "indexed": false,
          "internalType": "string",
          "name": "stringValue",
          "type": "string"
        }
      ],
      "name": "LongUintBooleanString",
      "type": "event"
    },
    {
      "anonymous": false,
      "inputs": [
        {
          "indexed": false,
          "internalType": "int8",
          "name": "value",
          "type": "int8"
        }
      ],
      "name": "ShortInt",
      "type": "event"
    },
    {
      "anonymous": false,
      "inputs": [
        {
          "indexed": false,
          "internalType": "uint8",
          "name": "value",
          "type": "uint8"
        }
      ],
      "name": "ShortUint",
      "type": "event"
    },
    {
      "anonymous": false,
      "inputs": [
        {
          "indexed": false,
          "internalType": "string",
          "name": "value",
          "type": "string"
        }
      ],
      "name": "String",
      "type": "event"
    },
    {
      "constant": false,
      "inputs": [],
      "name": "emitArgumentless",
      "outputs": [],
      "payable": false,
      "stateMutability": "nonpayable",
      "type": "function"
    },
    {
      "constant": false,
      "inputs": [
        {
          "internalType": "uint8",
          "name": "value",
          "type": "uint8"
        }
      ],
      "name": "emitShortUint",
      "outputs": [],
      "payable": false,
      "stateMutability": "nonpayable",
      "type": "function"
    },
    {
      "constant": false,
      "inputs": [
        {
          "internalType": "int8",
          "name": "value",
          "type": "int8"
        }
      ],
      "name": "emitShortInt",
      "outputs": [],
      "payable": false,
      "stateMutability": "nonpayable",
      "type": "function"
    },
    {
      "constant": false,
      "inputs": [
        {
          "internalType": "uint256",
          "name": "value",
          "type": "uint256"
        }
      ],
      "name": "emitLongUint",
      "outputs": [],
      "payable": false,
      "stateMutability": "nonpayable",
      "type": "function"
    },
    {
      "constant": false,
      "inputs": [
        {
          "internalType": "int256",
          "name": "value",
          "type": "int256"
        }
      ],
      "name": "emitLongInt",
      "outputs": [],
      "payable": false,
      "stateMutability": "nonpayable",
      "type": "function"
    },
    {
      "constant": false,
      "inputs": [
        {
          "internalType": "address",
          "name": "value",
          "type": "address"
        }
      ],
      "name": "emitAddress",
      "outputs": [],
      "payable": false,
      "stateMutability": "nonpayable",
      "type": "function"
    },
    {
      "constant": false,
      "inputs": [
        {
          "internalType": "bool",
          "name": "value",
          "type": "bool"
        }
      ],
      "name": "emitBoolean",
      "outputs": [],
      "payable": false,
      "stateMutability": "nonpayable",
      "type": "function"
    },
    {
      "constant": false,
      "inputs": [
        {
          "internalType": "string",
          "name": "value",
          "type": "string"
        }
      ],
      "name": "emitString",
      "outputs": [],
      "payable": false,
      "stateMutability": "nonpayable",
      "type": "function"
    },
    {
      "constant": false,
      "inputs": [
        {
          "internalType": "bytes",
          "name": "value",
          "type": "bytes"
        }
      ],
      "name": "emitBytes",
      "outputs": [],
      "payable": false,
      "stateMutability": "nonpayable",
      "type": "function"
    },
    {
      "constant": false,
      "inputs": [
        {
          "internalType": "uint256",
          "name": "uintValue",
          "type": "uint256"
        },
        {
          "internalType": "bool",
          "name": "booleanValue",
          "type": "bool"
        },
        {
          "internalType": "string",
          "name": "stringValue",
          "type": "string"
        }
      ],
      "name": "emitLongUintBooleanString",
      "outputs": [],
      "payable": false,
      "stateMutability": "nonpayable",
      "type": "function"
    },
    {
      "constant": false,
      "inputs": [
        {
          "internalType": "uint256",
          "name": "uintValue",
          "type": "uint256"
        },
        {
          "internalType": "bool",
          "name": "boolValue",
          "type": "bool"
        }
      ],
      "name": "emitLongUintAndBoolean",
      "outputs": [],
      "payable": false,
      "stateMutability": "nonpayable",
      "type": "function"
    },
    {
      "constant": false,
      "inputs": [
        {
          "internalType": "string",
          "name": "value",
          "type": "string"
        },
        {
          "internalType": "contract IndirectEventEmitter",
          "name": "emitter",
          "type": "address"
        }
      ],
      "name": "emitStringAndEmitIndirectly",
      "outputs": [],
      "payable": false,
      "stateMutability": "nonpayable",
      "type": "function"
    }
  ],
  "bytecode": "0x608060405234801561001057600080fd5b50604051610d4d380380610d4d8339818101604052606081101561003357600080fd5b8101908080519060200190929190805190602001909291908051604051939291908464010000000082111561006757600080fd5b8382019150602082018581111561007d57600080fd5b825186600182028301116401000000008211171561009a57600080fd5b8083526020830192505050908051906020019080838360005b838110156100ce5780820151818401526020810190506100b3565b50505050905090810190601f1680156100fb5780820380516001836020036101000a031916815260200191505b506040525050507fa6fd495d53216ab7af47447be18c30075b4b9e8fd2c84b6a16c5edd3ee387c6a83604051808260ff1660ff16815260200191505060405180910390a17f5f1a7d146ac3559fb06af8d44e7c16d6e709e4414b75308362587cbdb2ed161182604051808215151515815260200191505060405180910390a17f589e6a98e08368f5d141bacf55d749854ec881c912e12422b4bb4edee2851a2e816040518080602001828103825283818151815260200191508051906020019080838360005b838110156101dc5780820151818401526020810190506101c1565b50505050905090810190601f1680156102095780820380516001836020036101000a031916815260200191505b509250505060405180910390a1505050610b25806102286000396000f3fe608060405234801561001057600080fd5b50600436106100b45760003560e01c8063972576741161007157806397257674146102e6578063c3cccbda146103b7578063c76f0635146103f1578063d3986843146104ac578063ec5c3ede146104dc578063fd2fa64b14610520576100b4565b806314e90a10146100b95780631ce8a349146100c357806323b05715146100f15780632536f127146101cc5780634699764f146102875780635b12b18d146102b8575b600080fd5b6100c1610551565b005b6100ef600480360360208110156100d957600080fd5b810190808035906020019092919050505061057f565b005b6101ca6004803603604081101561010757600080fd5b810190808035906020019064010000000081111561012457600080fd5b82018360208201111561013657600080fd5b8035906020019184600183028401116401000000008311171561015857600080fd5b91908080601f016020809104026020016040519081016040528093929190818152602001838380828437600081840152601f19601f820116905080830192505050505050509192919290803573ffffffffffffffffffffffffffffffffffffffff1690602001909291905050506105b9565b005b610285600480360360208110156101e257600080fd5b81019080803590602001906401000000008111156101ff57600080fd5b82018360208201111561021157600080fd5b8035906020019184600183028401116401000000008311171561023357600080fd5b91908080601f016020809104026020016040519081016040528093929190818152602001838380828437600081840152601f19601f820116905080830192505050505050509192919290505050610729565b005b6102b66004803603602081101561029d57600080fd5b81019080803560000b90602001909291905050506107c8565b005b6102e4600480360360208110156102ce57600080fd5b8101908080359060200190929190505050610808565b005b6103b5600480360360608110156102fc57600080fd5b81019080803590602001909291908035151590602001909291908035906020019064010000000081111561032f57600080fd5b82018360208201111561034157600080fd5b8035906020019184600183028401116401000000008311171561036357600080fd5b91908080601f016020809104026020016040519081016040528093929190818152602001838380828437600081840152601f19601f820116905080830192505050505050509192919290505050610842565b005b6103ef600480360360408110156103cd57600080fd5b81019080803590602001909291908035151590602001909291905050506108f7565b005b6104aa6004803603602081101561040757600080fd5b810190808035906020019064010000000081111561042457600080fd5b82018360208201111561043657600080fd5b8035906020019184600183028401116401000000008311171561045857600080fd5b91908080601f016020809104026020016040519081016040528093929190818152602001838380828437600081840152601f19601f82011690508083019250505050505050919291929050505061096d565b005b6104da600480360360208110156104c257600080fd5b81019080803515159060200190929190505050610a0c565b005b61051e600480360360208110156104f257600080fd5b81019080803573ffffffffffffffffffffffffffffffffffffffff169060200190929190505050610a4a565b005b61054f6004803603602081101561053657600080fd5b81019080803560ff169060200190929190505050610ab0565b005b7fbe067714c11211adaac353c472c6022ce9927bc5190b38283b83c29d82cfeac860405160405180910390a1565b7fa84b4a529c360270e8511a17443da20c15be835343f9358f548b64cf722dbc90816040518082815260200191505060405180910390a150565b7f589e6a98e08368f5d141bacf55d749854ec881c912e12422b4bb4edee2851a2e826040518080602001828103825283818151815260200191508051906020019080838360005b8381101561061b578082015181840152602081019050610600565b50505050905090810190601f1680156106485780820380516001836020036101000a031916815260200191505b509250505060405180910390a18073ffffffffffffffffffffffffffffffffffffffff166384f390fa836040518263ffffffff1660e01b81526004018080602001828103825283818151815260200191508051906020019080838360005b838110156106c15780820151818401526020810190506106a6565b50505050905090810190601f1680156106ee5780820380516001836020036101000a031916815260200191505b5092505050600060405180830381600087803b15801561070d57600080fd5b505af1158015610721573d6000803e3d6000fd5b505050505050565b7f589e6a98e08368f5d141bacf55d749854ec881c912e12422b4bb4edee2851a2e816040518080602001828103825283818151815260200191508051906020019080838360005b8381101561078b578082015181840152602081019050610770565b50505050905090810190601f1680156107b85780820380516001836020036101000a031916815260200191505b509250505060405180910390a150565b7f6dfd09553edfd4a7760ca7fe1965b13913f18ff03029ff89f97f8c111ad8f9fc81604051808260000b60000b815260200191505060405180910390a150565b7fe5457628747787b496f254674feec51edaeff98055778f739971d3b4002af8d2816040518082815260200191505060405180910390a150565b7f594c091fded0306cf1bf72ebf396116d5ab9ce736177f19bcebd74b1a15dcee9838383604051808481526020018315151515815260200180602001828103825283818151815260200191508051906020019080838360005b838110156108b657808201518184015260208101905061089b565b50505050905090810190601f1680156108e35780820380516001836020036101000a031916815260200191505b5094505050505060405180910390a1505050565b7fa84b4a529c360270e8511a17443da20c15be835343f9358f548b64cf722dbc90826040518082815260200191505060405180910390a17f5f1a7d146ac3559fb06af8d44e7c16d6e709e4414b75308362587cbdb2ed161181604051808215151515815260200191505060405180910390a15050565b7f24ace672d0b56bb74d7b34faba262f0ca4bc2f84bc4494f66422a1c5f810d76b816040518080602001828103825283818151815260200191508051906020019080838360005b838110156109cf5780820151818401526020810190506109b4565b50505050905090810190601f1680156109fc5780820380516001836020036101000a031916815260200191505b509250505060405180910390a150565b7f5f1a7d146ac3559fb06af8d44e7c16d6e709e4414b75308362587cbdb2ed161181604051808215151515815260200191505060405180910390a150565b7febfb412ded3f9cdb15b75308503b279416e74d382f6ce86eedee0ef3130fa9e381604051808273ffffffffffffffffffffffffffffffffffffffff1673ffffffffffffffffffffffffffffffffffffffff16815260200191505060405180910390a150565b7fa6fd495d53216ab7af47447be18c30075b4b9e8fd2c84b6a16c5edd3ee387c6a81604051808260ff1660ff16815260200191505060405180910390a15056fea265627a7a723158204a47d11aaf38c5f5fa6dff528b15ad044681144e34d7bd3c19c2f595f112955d64736f6c63430005100032",
  "source": "pragma solidity ^0.5.0;\n\nimport \"./IndirectEventEmitter.sol\";\n\ncontract EventEmitter {\n    event Argumentless();\n    event ShortUint(uint8 value);\n    event ShortInt(int8 value);\n    event LongUint(uint256 value);\n    event LongInt(int256 value);\n    event Address(address value);\n    event Boolean(bool value);\n    event String(string value);\n    event LongUintBooleanString(uint256 uintValue, bool booleanValue, string stringValue);\n    event Bytes(bytes value);\n\n    constructor (uint8 uintValue, bool booleanValue, string memory stringValue) public {\n        emit ShortUint(uintValue);\n        emit Boolean(booleanValue);\n        emit String(stringValue);\n    }\n\n    function emitArgumentless() public {\n        emit Argumentless();\n    }\n\n    function emitShortUint(uint8 value) public {\n        emit ShortUint(value);\n    }\n\n    function emitShortInt(int8 value) public {\n        emit ShortInt(value);\n    }\n\n    function emitLongUint(uint256 value) public {\n        emit LongUint(value);\n    }\n\n    function emitLongInt(int256 value) public {\n        emit LongInt(value);\n    }\n\n    function emitAddress(address value) public {\n        emit Address(value);\n    }\n\n    function emitBoolean(bool value) public {\n        emit Boolean(value);\n    }\n\n    function emitString(string memory value) public {\n        emit String(value);\n    }\n\n    function emitBytes(bytes memory value) public {\n        emit Bytes(value);\n    }\n\n    function emitLongUintBooleanString(uint256 uintValue, bool booleanValue, string memory stringValue) public {\n        emit LongUintBooleanString(uintValue, booleanValue, stringValue);\n    }\n\n    function emitLongUintAndBoolean(uint256 uintValue, bool boolValue) public {\n        emit LongUint(uintValue);\n        emit Boolean(boolValue);\n    }\n\n    function emitStringAndEmitIndirectly(string memory value, IndirectEventEmitter emitter) public {\n        emit String(value);\n        emitter.emitStringIndirectly(value);\n    }\n}\n",
  "sourcePath": "/home/system32/mainProj/sign-the-doc/contracts/mocks/EventEmitter.sol",
  "compiler": {
    "name": "solc",
    "version": "0.5.16+commit.9c3226ce.Emscripten.clang"
  },
  "schemaVersion": "3.0.23",
  "updatedAt": "2020-05-01T08:50:05.505Z",
  "devdoc": {
    "methods": {}
  },
  "userdoc": {
    "methods": {}
  }
}