{
  "contractName": "Failer",
  "abi": [
    {
      "constant": true,
      "inputs": [],
      "name": "dontFail",
      "outputs": [],
      "payable": false,
      "stateMutability": "pure",
      "type": "function"
    },
    {
      "constant": true,
      "inputs": [],
      "name": "failWithRevert",
      "outputs": [],
      "payable": false,
      "stateMutability": "pure",
      "type": "function"
    },
    {
      "constant": true,
      "inputs": [],
      "name": "failWithThrow",
      "outputs": [],
      "payable": false,
      "stateMutability": "pure",
      "type": "function"
    },
    {
      "constant": true,
      "inputs": [],
      "name": "failWithRevertReason",
      "outputs": [],
      "payable": false,
      "stateMutability": "pure",
      "type": "function"
    },
    {
      "constant": false,
      "inputs": [],
      "name": "failWithOutOfGas",
      "outputs": [],
      "payable": false,
      "stateMutability": "nonpayable",
      "type": "function"
    },
    {
      "constant": true,
      "inputs": [],
      "name": "failRequirement",
      "outputs": [],
      "payable": false,
      "stateMutability": "pure",
      "type": "function"
    },
    {
      "constant": true,
      "inputs": [],
      "name": "failRequirementWithReason",
      "outputs": [],
      "payable": false,
      "stateMutability": "pure",
      "type": "function"
    }
  ],
  "bytecode": "0x608060405234801561001057600080fd5b506102bf806100206000396000f3fe608060405260043610610083576000357c0100000000000000000000000000000000000000000000000000000000900463ffffffff168063679f63a11461008857806381d530b51461009f57806383feea2d146100b65780639ad8f1c4146100cd578063af372dbd146100e4578063e7c46bb7146100fb578063f050e4a514610112575b600080fd5b34801561009457600080fd5b5061009d610129565b005b3480156100ab57600080fd5b506100b461012b565b005b3480156100c257600080fd5b506100cb610199565b005b3480156100d957600080fd5b506100e26101a8565b005b3480156100f057600080fd5b506100f96101b4565b005b34801561010757600080fd5b5061011061022c565b005b34801561011e57600080fd5b5061012761028e565b005b565b6040517f08c379a000000000000000000000000000000000000000000000000000000000815260040180806020018281038252600e8152602001807f446f6f6d656420746f206661696c00000000000000000000000000000000000081525060200191505060405180910390fd5b600015156101a657600080fd5b565b600015156101b257fe5b565b6000151561022a576040517f08c379a000000000000000000000000000000000000000000000000000000000815260040180806020018281038252600b8152602001807f556e73617469736669656400000000000000000000000000000000000000000081525060200191505060405180910390fd5b565b60008090505b79010000000000000000000000000000000000000000000000000081101561028b576000819080600181540180825580915050906001820390600052602060002001600090919290919091505550806001019050610232565b50565b600080fdfea165627a7a72305820254b747bb83b18d86df58031d4d726ba888bb76209db94295247bc051ef028da0029",
  "source": "pragma solidity ^0.5.0;\n\ncontract Failer {\n    uint256[] private array;\n\n    function dontFail() public pure {\n    }\n\n    function failWithRevert() public pure {\n        revert();\n    }\n\n    function failWithThrow() public pure {\n        assert(false);\n    }\n\n    function failWithRevertReason() public pure {\n        revert(\"Doomed to fail\");\n    }\n\n    function failWithOutOfGas() public {\n        for (uint256 i = 0; i < 2**200; ++i) {\n            array.push(i);\n        }\n    }\n\n    function failRequirement() public pure {\n        require(false);\n    }\n\n    function failRequirementWithReason() public pure {\n        require(false, \"Unsatisfied\");\n    }\n}\n",
  "sourcePath": "/home/rav/mainProj/sign-the-doc/contracts/mocks/Fail.sol",
  "compiler": {
    "name": "solc",
    "version": "0.5.0+commit.1d4f565a.Emscripten.clang"
  },
  "schemaVersion": "3.0.1",
  "updatedAt": "2019-04-26T07:36:50.170Z",
  "devdoc": {
    "methods": {}
  },
  "userdoc": {
    "methods": {}
  }
}