{
  "contractName": "Failer",
  "abi": [
    {
      "constant": true,
      "inputs": [],
      "name": "dontFail",
      "outputs": [],
      "payable": false,
      "stateMutability": "pure",
      "type": "function"
    },
    {
      "constant": true,
      "inputs": [],
      "name": "failWithRevert",
      "outputs": [],
      "payable": false,
      "stateMutability": "pure",
      "type": "function"
    },
    {
      "constant": true,
      "inputs": [],
      "name": "failWithThrow",
      "outputs": [],
      "payable": false,
      "stateMutability": "pure",
      "type": "function"
    },
    {
      "constant": true,
      "inputs": [],
      "name": "failWithRevertReason",
      "outputs": [],
      "payable": false,
      "stateMutability": "pure",
      "type": "function"
    },
    {
      "constant": false,
      "inputs": [],
      "name": "failWithOutOfGas",
      "outputs": [],
      "payable": false,
      "stateMutability": "nonpayable",
      "type": "function"
    },
    {
      "constant": true,
      "inputs": [],
      "name": "failRequirement",
      "outputs": [],
      "payable": false,
      "stateMutability": "pure",
      "type": "function"
    },
    {
      "constant": true,
      "inputs": [],
      "name": "failRequirementWithReason",
      "outputs": [],
      "payable": false,
      "stateMutability": "pure",
      "type": "function"
    }
  ],
  "bytecode": "0x608060405234801561001057600080fd5b50610261806100206000396000f3fe608060405234801561001057600080fd5b506004361061007d5760003560e01c80639ad8f1c41161005b5780639ad8f1c4146100a0578063af372dbd146100aa578063e7c46bb7146100b4578063f050e4a5146100be5761007d565b8063679f63a11461008257806381d530b51461008c57806383feea2d14610096575b600080fd5b61008a6100c8565b005b6100946100ca565b005b61009e610138565b005b6100a8610145565b005b6100b261014f565b005b6100bc6101c5565b005b6100c6610227565b005b565b6040517f08c379a000000000000000000000000000000000000000000000000000000000815260040180806020018281038252600e8152602001807f446f6f6d656420746f206661696c00000000000000000000000000000000000081525060200191505060405180910390fd5b600061014357600080fd5b565b600061014d57fe5b565b60006101c3576040517f08c379a000000000000000000000000000000000000000000000000000000000815260040180806020018281038252600b8152602001807f556e73617469736669656400000000000000000000000000000000000000000081525060200191505060405180910390fd5b565b60008090505b7901000000000000000000000000000000000000000000000000008110156102245760008190806001815401808255809150509060018203906000526020600020016000909192909190915055508060010190506101cb565b50565b600080fdfea265627a7a723158202488e459b92a6eb1e40282ae25ea0b1c6726d6fb7aa3d9feba84bfdc8e19494b64736f6c63430005100032",
  "source": "pragma solidity ^0.5.0;\n\ncontract Failer {\n    uint256[] private array;\n\n    function dontFail() public pure {\n    }\n\n    function failWithRevert() public pure {\n        revert();\n    }\n\n    function failWithThrow() public pure {\n        assert(false);\n    }\n\n    function failWithRevertReason() public pure {\n        revert(\"Doomed to fail\");\n    }\n\n    function failWithOutOfGas() public {\n        for (uint256 i = 0; i < 2**200; ++i) {\n            array.push(i);\n        }\n    }\n\n    function failRequirement() public pure {\n        require(false);\n    }\n\n    function failRequirementWithReason() public pure {\n        require(false, \"Unsatisfied\");\n    }\n}\n",
  "sourcePath": "/home/system32/mainProj/sign-the-doc/contracts/mocks/Fail.sol",
  "compiler": {
    "name": "solc",
    "version": "0.5.16+commit.9c3226ce.Emscripten.clang"
  },
  "schemaVersion": "3.0.23",
  "updatedAt": "2020-05-01T08:50:05.508Z",
  "devdoc": {
    "methods": {}
  },
  "userdoc": {
    "methods": {}
  }
}