{
  "contractName": "IndirectEventEmitter",
  "abi": [
    {
      "anonymous": false,
      "inputs": [
        {
          "indexed": false,
          "internalType": "string",
          "name": "value",
          "type": "string"
        }
      ],
      "name": "IndirectString",
      "type": "event"
    },
    {
      "constant": false,
      "inputs": [
        {
          "internalType": "string",
          "name": "value",
          "type": "string"
        }
      ],
      "name": "emitStringIndirectly",
      "outputs": [],
      "payable": false,
      "stateMutability": "nonpayable",
      "type": "function"
    }
  ],
  "bytecode": "0x608060405234801561001057600080fd5b506101bf806100206000396000f3fe608060405234801561001057600080fd5b506004361061002b5760003560e01c806384f390fa14610030575b600080fd5b6100e96004803603602081101561004657600080fd5b810190808035906020019064010000000081111561006357600080fd5b82018360208201111561007557600080fd5b8035906020019184600183028401116401000000008311171561009757600080fd5b91908080601f016020809104026020016040519081016040528093929190818152602001838380828437600081840152601f19601f8201169050808301925050505050505091929192905050506100eb565b005b7ff58431b083f570a2ac1a2ef2f04cfc1853f71c6c0794807e35d5cdb99834b0ca816040518080602001828103825283818151815260200191508051906020019080838360005b8381101561014d578082015181840152602081019050610132565b50505050905090810190601f16801561017a5780820380516001836020036101000a031916815260200191505b509250505060405180910390a15056fea265627a7a7231582065957cd19f3acac2cf4660f325fc2d09db0ee5c24a39f8a2ac3498385603153064736f6c63430005100032",
  "source": "pragma solidity ^0.5.0;\n\ncontract IndirectEventEmitter {\n    event IndirectString(string value);\n\n    function emitStringIndirectly(string memory value) public {\n        emit IndirectString(value);\n    }\n}\n",
  "sourcePath": "/home/system32/mainProj/sign-the-doc/contracts/mocks/IndirectEventEmitter.sol",
  "compiler": {
    "name": "solc",
    "version": "0.5.16+commit.9c3226ce.Emscripten.clang"
  },
  "schemaVersion": "3.0.23",
  "updatedAt": "2020-05-01T17:16:37.067Z",
  "devdoc": {
    "methods": {}
  },
  "userdoc": {
    "methods": {}
  }
}