{
  "contractName": "SignTheDoc",
  "abi": [
    {
      "constant": true,
      "inputs": [
        {
          "name": "docHash",
          "type": "bytes32"
        }
      ],
      "name": "isAuthorised",
      "outputs": [
        {
          "name": "",
          "type": "bool"
        }
      ],
      "payable": false,
      "stateMutability": "view",
      "type": "function",
      "signature": "0x6404a386"
    },
    {
      "constant": true,
      "inputs": [
        {
          "name": "creator",
          "type": "address"
        },
        {
          "name": "signerDocHash",
          "type": "bytes32"
        }
      ],
      "name": "multipleValidations",
      "outputs": [
        {
          "name": "",
          "type": "bool"
        }
      ],
      "payable": false,
      "stateMutability": "view",
      "type": "function",
      "signature": "0x5621878e"
    },
    {
      "constant": false,
      "inputs": [
        {
          "name": "expiryDate",
          "type": "uint256"
        },
        {
          "name": "signature",
          "type": "bytes"
        },
        {
          "name": "authorisedSignerList",
          "type": "address[]"
        },
        {
          "name": "docHash",
          "type": "bytes32"
        },
        {
          "name": "r",
          "type": "bytes32"
        },
        {
          "name": "s",
          "type": "bytes32"
        },
        {
          "name": "v",
          "type": "uint8"
        }
      ],
      "name": "createDocToSign",
      "outputs": [],
      "payable": false,
      "stateMutability": "nonpayable",
      "type": "function",
      "signature": "0x37738c1a"
    },
    {
      "constant": true,
      "inputs": [
        {
          "name": "regDocHash",
          "type": "bytes32"
        }
      ],
      "name": "getDocData",
      "outputs": [
        {
          "name": "creatorAddress",
          "type": "address"
        },
        {
          "name": "creationDate",
          "type": "uint256"
        },
        {
          "name": "expiryDate",
          "type": "uint256"
        },
        {
          "name": "docHash",
          "type": "bytes32"
        },
        {
          "name": "signature",
          "type": "bytes"
        },
        {
          "name": "authorisedSigners",
          "type": "address[]"
        },
        {
          "name": "whoSigned",
          "type": "address[]"
        }
      ],
      "payable": false,
      "stateMutability": "view",
      "type": "function",
      "signature": "0x257e888e"
    },
    {
      "constant": false,
      "inputs": [
        {
          "name": "creator",
          "type": "address"
        },
        {
          "name": "signerDocHash",
          "type": "bytes32"
        },
        {
          "name": "r",
          "type": "bytes32"
        },
        {
          "name": "s",
          "type": "bytes32"
        },
        {
          "name": "v",
          "type": "uint8"
        },
        {
          "name": "signature",
          "type": "bytes"
        }
      ],
      "name": "signTheDoc",
      "outputs": [],
      "payable": false,
      "stateMutability": "nonpayable",
      "type": "function",
      "signature": "0xbefdc7b1"
    },
    {
      "constant": false,
      "inputs": [
        {
          "name": "signerDocHash",
          "type": "bytes32"
        },
        {
          "name": "r",
          "type": "bytes32"
        },
        {
          "name": "s",
          "type": "bytes32"
        },
        {
          "name": "v",
          "type": "uint8"
        },
        {
          "name": "signature",
          "type": "bytes"
        }
      ],
      "name": "publishSign",
      "outputs": [
        {
          "name": "",
          "type": "bool"
        }
      ],
      "payable": false,
      "stateMutability": "nonpayable",
      "type": "function",
      "signature": "0xf2442387"
    },
    {
      "constant": true,
      "inputs": [
        {
          "name": "docHash",
          "type": "bytes32"
        },
        {
          "name": "signer",
          "type": "address"
        }
      ],
      "name": "isSigned",
      "outputs": [
        {
          "name": "signed",
          "type": "bool"
        }
      ],
      "payable": false,
      "stateMutability": "view",
      "type": "function",
      "signature": "0x7f8d61e0"
    },
    {
      "constant": true,
      "inputs": [
        {
          "name": "signerDocHash",
          "type": "bytes32"
        },
        {
          "name": "signer",
          "type": "address"
        }
      ],
      "name": "getSignerInfo",
      "outputs": [
        {
          "name": "signerAddress",
          "type": "address"
        },
        {
          "name": "signedDate",
          "type": "uint256"
        },
        {
          "name": "docHash",
          "type": "bytes32"
        },
        {
          "name": "signature",
          "type": "bytes"
        },
        {
          "name": "signedOrNot",
          "type": "bool"
        }
      ],
      "payable": false,
      "stateMutability": "view",
      "type": "function",
      "signature": "0x8dc5c2ef"
    }
  ],
  "bytecode": "0x608060405234801561001057600080fd5b50611f52806100206000396000f3fe60806040526004361061008e576000357c0100000000000000000000000000000000000000000000000000000000900463ffffffff168063257e888e1461009357806337738c1a1461021f5780635621878e146103b05780636404a386146104235780637f8d61e0146104765780638dc5c2ef146104e9578063befdc7b114610609578063f24423871461071c575b600080fd5b34801561009f57600080fd5b506100cc600480360360208110156100b657600080fd5b8101908080359060200190929190505050610827565b604051808873ffffffffffffffffffffffffffffffffffffffff1673ffffffffffffffffffffffffffffffffffffffff168152602001878152602001868152602001858152602001806020018060200180602001848103845287818151815260200191508051906020019080838360005b8381101561015857808201518184015260208101905061013d565b50505050905090810190601f1680156101855780820380516001836020036101000a031916815260200191505b50848103835286818151815260200191508051906020019060200280838360005b838110156101c15780820151818401526020810190506101a6565b50505050905001848103825285818151815260200191508051906020019060200280838360005b838110156102035780820151818401526020810190506101e8565b505050509050019a505050505050505050505060405180910390f35b34801561022b57600080fd5b506103ae600480360360e081101561024257600080fd5b81019080803590602001909291908035906020019064010000000081111561026957600080fd5b82018360208201111561027b57600080fd5b8035906020019184600183028401116401000000008311171561029d57600080fd5b91908080601f016020809104026020016040519081016040528093929190818152602001838380828437600081840152601f19601f8201169050808301925050505050505091929192908035906020019064010000000081111561030057600080fd5b82018360208201111561031257600080fd5b8035906020019184602083028401116401000000008311171561033457600080fd5b919080806020026020016040519081016040528093929190818152602001838360200280828437600081840152601f19601f820116905080830192505050505050509192919290803590602001909291908035906020019092919080359060200190929190803560ff169060200190929190505050610ad3565b005b3480156103bc57600080fd5b50610409600480360360408110156103d357600080fd5b81019080803573ffffffffffffffffffffffffffffffffffffffff16906020019092919080359060200190929190505050610df2565b604051808215151515815260200191505060405180910390f35b34801561042f57600080fd5b5061045c6004803603602081101561044657600080fd5b8101908080359060200190929190505050611401565b604051808215151515815260200191505060405180910390f35b34801561048257600080fd5b506104cf6004803603604081101561049957600080fd5b8101908080359060200190929190803573ffffffffffffffffffffffffffffffffffffffff16906020019092919050505061146b565b604051808215151515815260200191505060405180910390f35b3480156104f557600080fd5b506105426004803603604081101561050c57600080fd5b8101908080359060200190929190803573ffffffffffffffffffffffffffffffffffffffff1690602001909291905050506114d6565b604051808673ffffffffffffffffffffffffffffffffffffffff1673ffffffffffffffffffffffffffffffffffffffff1681526020018581526020018481526020018060200183151515158152602001828103825284818151815260200191508051906020019080838360005b838110156105ca5780820151818401526020810190506105af565b50505050905090810190601f1680156105f75780820380516001836020036101000a031916815260200191505b50965050505050505060405180910390f35b34801561061557600080fd5b5061071a600480360360c081101561062c57600080fd5b81019080803573ffffffffffffffffffffffffffffffffffffffff169060200190929190803590602001909291908035906020019092919080359060200190929190803560ff1690602001909291908035906020019064010000000081111561069457600080fd5b8201836020820111156106a657600080fd5b803590602001918460018302840111640100000000831117156106c857600080fd5b91908080601f016020809104026020016040519081016040528093929190818152602001838380828437600081840152601f19601f8201169050808301925050505050505091929192905050506116e7565b005b34801561072857600080fd5b5061080d600480360360a081101561073f57600080fd5b81019080803590602001909291908035906020019092919080359060200190929190803560ff1690602001909291908035906020019064010000000081111561078757600080fd5b82018360208201111561079957600080fd5b803590602001918460018302840111640100000000831117156107bb57600080fd5b91908080601f016020809104026020016040519081016040528093929190818152602001838380828437600081840152601f19601f82011690508083019250505050505050919291929050505061171c565b604051808215151515815260200191505060405180910390f35b600080600080606080606061083a611c9b565b600160008a815260200190815260200160002060e060405190810160405290816000820160009054906101000a900473ffffffffffffffffffffffffffffffffffffffff1673ffffffffffffffffffffffffffffffffffffffff1673ffffffffffffffffffffffffffffffffffffffff168152602001600182015481526020016002820154815260200160038201548152602001600482018054600181600116156101000203166002900480601f0160208091040260200160405190810160405280929190818152602001828054600181600116156101000203166002900480156109665780601f1061093b57610100808354040283529160200191610966565b820191906000526020600020905b81548152906001019060200180831161094957829003601f168201915b50505050508152602001600582018054806020026020016040519081016040528092919081815260200182805480156109f457602002820191906000526020600020905b8160009054906101000a900473ffffffffffffffffffffffffffffffffffffffff1673ffffffffffffffffffffffffffffffffffffffff16815260200190600101908083116109aa575b5050505050815260200160068201805480602002602001604051908101604052809291908181526020018280548015610a8257602002820191906000526020600020905b8160009054906101000a900473ffffffffffffffffffffffffffffffffffffffff1673ffffffffffffffffffffffffffffffffffffffff1681526020019060010190808311610a38575b5050505050815250509050806000015181602001518260400151836060015184608001518560a001518660c00151829250819150809050975097509750975097509750975050919395979092949650565b8360006001026001600083815260200190815260200160002060030154141515610b65576040517f08c379a00000000000000000000000000000000000000000000000000000000081526004018080602001828103825260148152602001807f48617368206d75737420626520756e697175652e00000000000000000000000081525060200191505060405180910390fd5b8742811180610b745750600081145b1515610c0e576040517f08c379a00000000000000000000000000000000000000000000000000000000081526004018080602001828103825260398152602001807f436f6e74726163742065787069727920646174652073686f756c64206265206781526020017f726561746572207468616e2063757272656e742074696d652e0000000000000081525060400191505060405180910390fd5b8585858560606040805190810160405280601c81526020017f19457468657265756d205369676e6564204d6573736167653a0a3332000000008152509050600081866040516020018083805190602001908083835b602083101515610c885780518252602082019150602081019050602083039250610c63565b6001836020036101000a038019825116818451168082178552505050505050905001828152602001925050506040516020818303038152906040528051906020012090503373ffffffffffffffffffffffffffffffffffffffff1660018285888860405160008152602001604052604051808581526020018460ff1660ff1681526020018381526020018281526020019450505050506020604051602081039080840390855afa158015610d40573d6000803e3d6000fd5b5050506020604051035173ffffffffffffffffffffffffffffffffffffffff16141515610dd5576040517f08c379a000000000000000000000000000000000000000000000000000000000815260040180806020018281038252601d8152602001807f5369676e617475726520766572696669636174696f6e206661696c656400000081525060200191505060405180910390fd5b610de18f8f8f8f611ad2565b505050505050505050505050505050565b6000610dfc611c9b565b6001600084815260200190815260200160002060e060405190810160405290816000820160009054906101000a900473ffffffffffffffffffffffffffffffffffffffff1673ffffffffffffffffffffffffffffffffffffffff1673ffffffffffffffffffffffffffffffffffffffff168152602001600182015481526020016002820154815260200160038201548152602001600482018054600181600116156101000203166002900480601f016020809104026020016040519081016040528092919081815260200182805460018160011615610100020316600290048015610f285780601f10610efd57610100808354040283529160200191610f28565b820191906000526020600020905b815481529060010190602001808311610f0b57829003601f168201915b5050505050815260200160058201805480602002602001604051908101604052809291908181526020018280548015610fb657602002820191906000526020600020905b8160009054906101000a900473ffffffffffffffffffffffffffffffffffffffff1673ffffffffffffffffffffffffffffffffffffffff1681526020019060010190808311610f6c575b505050505081526020016006820180548060200260200160405190810160405280929190818152602001828054801561104457602002820191906000526020600020905b8160009054906101000a900473ffffffffffffffffffffffffffffffffffffffff1673ffffffffffffffffffffffffffffffffffffffff1681526020019060010190808311610ffa575b50505050508152505090508060600151831415156110ca576040517f08c379a000000000000000000000000000000000000000000000000000000000815260040180806020018281038252601f8152602001807f4661696c656420746f2076657269667920646f63756d656e7420686173682e0081525060200191505060405180910390fd5b8373ffffffffffffffffffffffffffffffffffffffff16816000015173ffffffffffffffffffffffffffffffffffffffff16141515611197576040517f08c379a00000000000000000000000000000000000000000000000000000000081526004018080602001828103825260218152602001807f4661696c656420746f207665726966792063726561746f72206164647265737381526020017f2e0000000000000000000000000000000000000000000000000000000000000081525060400191505060405180910390fd5b42816040015111806111ad575060008160400151145b1515611247576040517f08c379a00000000000000000000000000000000000000000000000000000000081526004018080602001828103825260308152602001807f4461746520616c726561647920657870697265642e205369676e696e6720697381526020017f20646973616c6c6f776564206e6f772e0000000000000000000000000000000081525060400191505060405180910390fd5b6001600084815260200190815260200160002060090160003373ffffffffffffffffffffffffffffffffffffffff1673ffffffffffffffffffffffffffffffffffffffff16815260200190815260200160002060009054906101000a900460ff16151515611343576040517f08c379a000000000000000000000000000000000000000000000000000000000815260040180806020018281038252603f8152602001807f416c7265616479207369676e65642062792074686973206163636f756e742e4d81526020017f756c7469706c65207369676e696e67206973206e6f7420616c6c6f7765642e0081525060400191505060405180910390fd5b60008160a00151511415156113f65761135b83611401565b15156113f5576040517f08c379a00000000000000000000000000000000000000000000000000000000081526004018080602001828103825260358152602001807f50726f76696465642061646472657373206e6f7420617574686f72697365642081526020017f746f207369676e2074686520646f63756d656e742e000000000000000000000081525060400191505060405180910390fd5b5b600191505092915050565b60006001600083815260200190815260200160002060070160003373ffffffffffffffffffffffffffffffffffffffff1673ffffffffffffffffffffffffffffffffffffffff16815260200190815260200160002060009054906101000a900460ff169050919050565b60006001600084815260200190815260200160002060090160008373ffffffffffffffffffffffffffffffffffffffff1673ffffffffffffffffffffffffffffffffffffffff16815260200190815260200160002060009054906101000a900460ff16905092915050565b6000806000606060006114e7611cf2565b6001600089815260200190815260200160002060080160008873ffffffffffffffffffffffffffffffffffffffff1673ffffffffffffffffffffffffffffffffffffffff168152602001908152602001600020608060405190810160405290816000820160009054906101000a900473ffffffffffffffffffffffffffffffffffffffff1673ffffffffffffffffffffffffffffffffffffffff1673ffffffffffffffffffffffffffffffffffffffff1681526020016001820154815260200160028201548152602001600382018054600181600116156101000203166002900480601f0160208091040260200160405190810160405280929190818152602001828054600181600116156101000203166002900480156116495780601f1061161e57610100808354040283529160200191611649565b820191906000526020600020905b81548152906001019060200180831161162c57829003601f168201915b50505050508152505090506000600160008a815260200190815260200160002060090160008973ffffffffffffffffffffffffffffffffffffffff1673ffffffffffffffffffffffffffffffffffffffff16815260200190815260200160002060009054906101000a900460ff1690508160000151826020015183604001518460600151848191509650965096509650965050509295509295909350565b6116f18686610df2565b15156116fc57600080fd5b611709858585858561171c565b151561171457600080fd5b505050505050565b60008585858560606040805190810160405280601c81526020017f19457468657265756d205369676e6564204d6573736167653a0a3332000000008152509050600081866040516020018083805190602001908083835b6020831015156117985780518252602082019150602081019050602083039250611773565b6001836020036101000a038019825116818451168082178552505050505050905001828152602001925050506040516020818303038152906040528051906020012090503373ffffffffffffffffffffffffffffffffffffffff1660018285888860405160008152602001604052604051808581526020018460ff1660ff1681526020018381526020018281526020019450505050506020604051602081039080840390855afa158015611850573d6000803e3d6000fd5b5050506020604051035173ffffffffffffffffffffffffffffffffffffffff161415156118e5576040517f08c379a000000000000000000000000000000000000000000000000000000000815260040180806020018281038252601d8152602001807f5369676e617475726520766572696669636174696f6e206661696c656400000081525060200191505060405180910390fd5b6000600160008e81526020019081526020016000209050611904611cf2565b6080604051908101604052803373ffffffffffffffffffffffffffffffffffffffff1681526020014281526020018f81526020018b8152509050808260080160003373ffffffffffffffffffffffffffffffffffffffff1673ffffffffffffffffffffffffffffffffffffffff16815260200190815260200160002060008201518160000160006101000a81548173ffffffffffffffffffffffffffffffffffffffff021916908373ffffffffffffffffffffffffffffffffffffffff160217905550602082015181600101556040820151816002015560608201518160030190805190602001906119f7929190611d34565b50905050816006013390806001815401808255809150509060018203906000526020600020016000909192909190916101000a81548173ffffffffffffffffffffffffffffffffffffffff021916908373ffffffffffffffffffffffffffffffffffffffff1602179055505060018260090160003373ffffffffffffffffffffffffffffffffffffffff1673ffffffffffffffffffffffffffffffffffffffff16815260200190815260200160002060006101000a81548160ff02191690831515021790555060019850505050505050505095945050505050565b6000600160008381526020019081526020016000209050338160000160006101000a81548173ffffffffffffffffffffffffffffffffffffffff021916908373ffffffffffffffffffffffffffffffffffffffff16021790555042816001018190555084816002018190555081816003018190555083816004019080519060200190611b5f929190611db4565b5082816005019080519060200190611b78929190611e34565b50600183511415611bfa576001816007016000856000815181101515611b9a57fe5b9060200190602002015173ffffffffffffffffffffffffffffffffffffffff1673ffffffffffffffffffffffffffffffffffffffff16815260200190815260200160002060006101000a81548160ff021916908315150217905550611c94565b600183511115611c935760008090505b8351811015611c915760018260070160008684815181101515611c2957fe5b9060200190602002015173ffffffffffffffffffffffffffffffffffffffff1673ffffffffffffffffffffffffffffffffffffffff16815260200190815260200160002060006101000a81548160ff0219169083151502179055508080600101915050611c0a565b505b5b5050505050565b60e060405190810160405280600073ffffffffffffffffffffffffffffffffffffffff1681526020016000815260200160008152602001600080191681526020016060815260200160608152602001606081525090565b608060405190810160405280600073ffffffffffffffffffffffffffffffffffffffff1681526020016000815260200160008019168152602001606081525090565b828054600181600116156101000203166002900490600052602060002090601f016020900481019282601f10611d7557805160ff1916838001178555611da3565b82800160010185558215611da3579182015b82811115611da2578251825591602001919060010190611d87565b5b509050611db09190611ebe565b5090565b828054600181600116156101000203166002900490600052602060002090601f016020900481019282601f10611df557805160ff1916838001178555611e23565b82800160010185558215611e23579182015b82811115611e22578251825591602001919060010190611e07565b5b509050611e309190611ebe565b5090565b828054828255906000526020600020908101928215611ead579160200282015b82811115611eac5782518260006101000a81548173ffffffffffffffffffffffffffffffffffffffff021916908373ffffffffffffffffffffffffffffffffffffffff16021790555091602001919060010190611e54565b5b509050611eba9190611ee3565b5090565b611ee091905b80821115611edc576000816000905550600101611ec4565b5090565b90565b611f2391905b80821115611f1f57600081816101000a81549073ffffffffffffffffffffffffffffffffffffffff021916905550600101611ee9565b5090565b9056fea165627a7a72305820686fded693b95ea26064e09f51a207763f40dccd318bb4277bb9cc08ccc238060029",
  "source": "pragma solidity ^ 0.5.0;\n\ncontract SignTheDoc {\n  \n  struct Creator {\n    address creatorAddress;\n    uint256 creationDate;\n    uint256 expiryDate;\n    bytes32 docHash;\n    bytes signature;\n    address[] authorisedSignerList;\n    address[] whoSigned;\n    mapping(address => bool) authorisedToSign;\n    mapping(address => Signer) signerInfo;\n    mapping(address => bool) signedOrNot;\n  }\n\n  struct Signer {\n    address signerAddress;\n    uint256 signedDate;\n    bytes32 docHash;\n    bytes signature;\n  }\n\n  //Record of the creator hash creation for easy access\n  mapping(address => bytes32[]) creatorDocHashes;\n\n  //Hash of the data is linked to Creator Struct\n  mapping(bytes32 => Creator) docData;\n\n  //Probably unnecessary\n  Signer[] signers;\n\n  modifier isDocHashUnique(bytes32 docHash) {\n    require(\n      docData[docHash].docHash == bytes32(0),\n      'Hash must be unique.'\n    );\n    _;\n  }\n\n  modifier isExpired(uint256 expiryDate) {\n    require(\n      expiryDate > block.timestamp || expiryDate == 0,\n      'Contract expiry date should be greater than current time.');\n    _;\n  }\n\n  modifier verifySignature(bytes32 hash, bytes32 r, bytes32 s, uint8 v) {\n    bytes memory prefix = \"\\x19Ethereum Signed Message:\\n32\";\n    bytes32 prefixedHash = keccak256(abi.encodePacked(prefix, hash));\n    require(ecrecover(prefixedHash, v, r, s) == msg.sender,\n      'Signature verification failed');\n    _;\n  }\n\n  function isAuthorised(bytes32 docHash) public view returns(bool) {\n    return (docData[docHash].authorisedToSign[msg.sender]);\n  }\n\n  function multipleValidations(address creator, bytes32 signerDocHash) public view returns(bool){\n    Creator memory doc = docData[signerDocHash];\n    \n    require(\n      signerDocHash == doc.docHash,\n      'Failed to verify document hash.'\n    );\n\n    require(\n      doc.creatorAddress == creator,\n      'Failed to verify creator address.'\n    );\n\n    require(\n      (doc.expiryDate > block.timestamp) || (doc.expiryDate == 0),\n      'Date already expired. Signing is disallowed now.'\n    );\n\n   require(\n     !(docData[signerDocHash].signedOrNot[msg.sender]), \n      'Already signed by this account.Multiple signing is not allowed.'\n   );\n\n   if(doc.authorisedSignerList.length != 0) {\n      require(\n        isAuthorised(signerDocHash),\n        'Provided address not authorised to sign the document.'\n      );\n    }\n    \n    return true;\n  }\n\n  function createDocToSign(\n    uint256 expiryDate,\n    bytes memory signature,\n    address[] memory authorisedSignerList,\n    bytes32 docHash,\n    bytes32 r,\n    bytes32 s,\n    uint8 v\n  )\n  public\n  isDocHashUnique(docHash)\n  isExpired(expiryDate)\n  verifySignature(docHash, r, s, v)\n  {\n    recordInitialDoc(expiryDate, signature, authorisedSignerList, docHash);\n  }\n\n  function recordInitialDoc(\n    uint256 expiryDate,\n    bytes memory signature, \n    address[] memory authorisedSignerList, \n    bytes32 docHash\n    ) \n    internal {\n    Creator storage creator = docData[docHash];\n\n    creator.creatorAddress = msg.sender;\n    creator.creationDate = block.timestamp;\n    creator.expiryDate = expiryDate;\n    creator.docHash = docHash;\n    creator.signature = signature;\n    creator.authorisedSignerList = authorisedSignerList;\n\n    if (authorisedSignerList.length == 1) {\n      creator.authorisedToSign[authorisedSignerList[0]] = true;\n    } else if (authorisedSignerList.length > 1) {\n      for (uint i = 0; i < authorisedSignerList.length; i++) {\n        creator.authorisedToSign[authorisedSignerList[i]] = true;\n      }\n    }\n  }\n\n  //Returns the content of the struct\n  function getDocData(bytes32 regDocHash)\n  public\n  view\n  returns(\n    address creatorAddress,\n    uint256 creationDate,\n    uint256 expiryDate,\n    bytes32 docHash,\n    bytes memory signature,\n    address[] memory authorisedSigners,\n    address[] memory whoSigned\n  ) {\n    Creator memory cr = docData[regDocHash];\n    return (cr.creatorAddress, cr.creationDate, cr.expiryDate, cr.docHash, cr.signature, cr.authorisedSignerList, cr.whoSigned);\n  }\n\n  function signTheDoc(address creator, bytes32 signerDocHash, bytes32 r, bytes32 s, uint8 v, bytes memory signature) public {\n    require(multipleValidations(creator, signerDocHash));\n    require(publishSign(signerDocHash, r, s, v, signature));\n  }\n\n  function publishSign(bytes32 signerDocHash, bytes32 r, bytes32 s, uint8 v, bytes memory signature)\n  public\n  verifySignature(signerDocHash, r, s, v)\n  returns(bool) {\n    Creator storage doc = docData[signerDocHash];\n    Signer memory signer = Signer(msg.sender, block.timestamp, signerDocHash, signature);\n    doc.signerInfo[msg.sender] = signer;\n    doc.whoSigned.push(msg.sender);\n    doc.signedOrNot[msg.sender] = true;\n    return true;\n  }\n  \n  function isSigned(bytes32 docHash, address signer) public view returns (bool signed) {\n      return docData[docHash].signedOrNot[signer];\n  }\n\n  function getSignerInfo(bytes32 signerDocHash, address signer)\n   public\n   view\n   returns(\n     address signerAddress,\n     uint256 signedDate,\n     bytes32 docHash,\n     bytes memory signature,\n     bool signedOrNot) {\n\n    Signer memory si = docData[signerDocHash].signerInfo[signer];\n    bool signed = docData[signerDocHash].signedOrNot[signer];\n    return (si.signerAddress, si.signedDate, si.docHash, si.signature, signed);\n  }\n}\n",
  "sourcePath": "/home/rav/mainProj/sign-the-doc/contracts/SignTheDoc.sol",
  "compiler": {
    "name": "solc",
    "version": "0.5.0+commit.1d4f565a.Emscripten.clang"
  },
  "schemaVersion": "3.0.1",
  "updatedAt": "2019-05-18T09:42:03.033Z",
  "devdoc": {
    "methods": {}
  },
  "userdoc": {
    "methods": {}
  }
}