{
  "contractName": "Signature",
  "abi": [
    {
      "constant": true,
      "inputs": [
        {
          "internalType": "bytes32",
          "name": "hash",
          "type": "bytes32"
        },
        {
          "internalType": "bytes32",
          "name": "r",
          "type": "bytes32"
        },
        {
          "internalType": "bytes32",
          "name": "s",
          "type": "bytes32"
        },
        {
          "internalType": "uint8",
          "name": "v",
          "type": "uint8"
        },
        {
          "internalType": "address",
          "name": "signer",
          "type": "address"
        }
      ],
      "name": "verifySignature",
      "outputs": [
        {
          "internalType": "bool",
          "name": "",
          "type": "bool"
        }
      ],
      "payable": false,
      "stateMutability": "pure",
      "type": "function"
    }
  ],
  "bytecode": "0x608060405234801561001057600080fd5b50610248806100206000396000f3fe608060405234801561001057600080fd5b506004361061002b5760003560e01c8063ffc18c9114610030575b600080fd5b61009d600480360360a081101561004657600080fd5b81019080803590602001909291908035906020019092919080359060200190929190803560ff169060200190929190803573ffffffffffffffffffffffffffffffffffffffff1690602001909291905050506100b7565b604051808215151515815260200191505060405180910390f35b600060606040518060400160405280601c81526020017f19457468657265756d205369676e6564204d6573736167653a0a3332000000008152509050600081886040516020018083805190602001908083835b6020831061012d578051825260208201915060208101905060208303925061010a565b6001836020036101000a038019825116818451168082178552505050505050905001828152602001925050506040516020818303038152906040528051906020012090508373ffffffffffffffffffffffffffffffffffffffff16600182878a8a60405160008152602001604052604051808581526020018460ff1660ff1681526020018381526020018281526020019450505050506020604051602081039080840390855afa1580156101e5573d6000803e3d6000fd5b5050506020604051035173ffffffffffffffffffffffffffffffffffffffff1614925050509594505050505056fea265627a7a72315820c11f2ffc1ad207d89e7214e06dadba5fd548425c7b24ea5c292386c0526b1dc764736f6c63430005100032",
  "source": "pragma solidity ^0.5.0;\n\ncontract Signature {\n\n  function verifySignature(bytes32 hash, bytes32 r, bytes32 s, uint8 v, address signer) public pure returns(bool) {\n    bytes memory prefix = \"\\x19Ethereum Signed Message:\\n32\";\n    bytes32 prefixedHash = keccak256(abi.encodePacked(prefix, hash));\n    return ecrecover(prefixedHash, v, r, s) == signer;\n  }\n\n}\n",
  "sourcePath": "/home/system32/mainProj/sign-the-doc/contracts/mocks/VerifySign.sol",
  "compiler": {
    "name": "solc",
    "version": "0.5.16+commit.9c3226ce.Emscripten.clang"
  },
  "schemaVersion": "3.0.23",
  "updatedAt": "2020-05-01T08:50:05.510Z",
  "devdoc": {
    "methods": {}
  },
  "userdoc": {
    "methods": {}
  }
}