{
  "contractName": "SignTheDoc",
  "abi": [
    {
      "constant": false,
      "inputs": [
        {
          "internalType": "uint256",
          "name": "expiryDate",
          "type": "uint256"
        },
        {
          "internalType": "bytes",
          "name": "signature",
          "type": "bytes"
        },
        {
          "internalType": "address[]",
          "name": "authorisedSignerList",
          "type": "address[]"
        },
        {
          "internalType": "bytes32",
          "name": "docHash",
          "type": "bytes32"
        },
        {
          "internalType": "bytes32",
          "name": "r",
          "type": "bytes32"
        },
        {
          "internalType": "bytes32",
          "name": "s",
          "type": "bytes32"
        },
        {
          "internalType": "uint8",
          "name": "v",
          "type": "uint8"
        }
      ],
      "name": "createDocToSign",
      "outputs": [],
      "payable": false,
      "stateMutability": "nonpayable",
      "type": "function"
    },
    {
      "constant": true,
      "inputs": [
        {
          "internalType": "bytes32",
          "name": "regDocHash",
          "type": "bytes32"
        }
      ],
      "name": "getDocData",
      "outputs": [
        {
          "internalType": "address",
          "name": "creatorAddress",
          "type": "address"
        },
        {
          "internalType": "uint256",
          "name": "creationDate",
          "type": "uint256"
        },
        {
          "internalType": "uint256",
          "name": "expiryDate",
          "type": "uint256"
        },
        {
          "internalType": "bytes32",
          "name": "docHash",
          "type": "bytes32"
        },
        {
          "internalType": "bytes",
          "name": "signature",
          "type": "bytes"
        },
        {
          "internalType": "address[]",
          "name": "authorisedSigners",
          "type": "address[]"
        },
        {
          "internalType": "address[]",
          "name": "whoSigned",
          "type": "address[]"
        }
      ],
      "payable": false,
      "stateMutability": "view",
      "type": "function"
    },
    {
      "constant": false,
      "inputs": [
        {
          "internalType": "address",
          "name": "creator",
          "type": "address"
        },
        {
          "internalType": "bytes32",
          "name": "signerDocHash",
          "type": "bytes32"
        },
        {
          "internalType": "bytes32",
          "name": "r",
          "type": "bytes32"
        },
        {
          "internalType": "bytes32",
          "name": "s",
          "type": "bytes32"
        },
        {
          "internalType": "uint8",
          "name": "v",
          "type": "uint8"
        },
        {
          "internalType": "bytes",
          "name": "signature",
          "type": "bytes"
        }
      ],
      "name": "signTheDoc",
      "outputs": [],
      "payable": false,
      "stateMutability": "nonpayable",
      "type": "function"
    },
    {
      "constant": true,
      "inputs": [
        {
          "internalType": "bytes32",
          "name": "docHash",
          "type": "bytes32"
        }
      ],
      "name": "isAuthorised",
      "outputs": [
        {
          "internalType": "bool",
          "name": "",
          "type": "bool"
        }
      ],
      "payable": false,
      "stateMutability": "view",
      "type": "function"
    },
    {
      "constant": true,
      "inputs": [
        {
          "internalType": "bytes32",
          "name": "docHash",
          "type": "bytes32"
        },
        {
          "internalType": "address",
          "name": "signer",
          "type": "address"
        }
      ],
      "name": "isSigned",
      "outputs": [
        {
          "internalType": "bool",
          "name": "signed",
          "type": "bool"
        }
      ],
      "payable": false,
      "stateMutability": "view",
      "type": "function"
    },
    {
      "constant": true,
      "inputs": [
        {
          "internalType": "bytes32",
          "name": "signerDocHash",
          "type": "bytes32"
        },
        {
          "internalType": "address",
          "name": "signer",
          "type": "address"
        }
      ],
      "name": "getSignerInfo",
      "outputs": [
        {
          "internalType": "address",
          "name": "signerAddress",
          "type": "address"
        },
        {
          "internalType": "uint256",
          "name": "signedDate",
          "type": "uint256"
        },
        {
          "internalType": "bytes32",
          "name": "docHash",
          "type": "bytes32"
        },
        {
          "internalType": "bytes",
          "name": "signature",
          "type": "bytes"
        },
        {
          "internalType": "bool",
          "name": "signedOrNot",
          "type": "bool"
        }
      ],
      "payable": false,
      "stateMutability": "view",
      "type": "function"
    }
  ],
  "bytecode": "0x608060405234801561001057600080fd5b50611d80806100206000396000f3fe608060405234801561001057600080fd5b50600436106100625760003560e01c8063257e888e1461006757806337738c1a146101e65780636404a3861461036a5780637f8d61e0146103b05780638dc5c2ef14610416578063befdc7b114610529575b600080fd5b6100936004803603602081101561007d57600080fd5b810190808035906020019092919050505061062f565b604051808873ffffffffffffffffffffffffffffffffffffffff1673ffffffffffffffffffffffffffffffffffffffff168152602001878152602001868152602001858152602001806020018060200180602001848103845287818151815260200191508051906020019080838360005b8381101561011f578082015181840152602081019050610104565b50505050905090810190601f16801561014c5780820380516001836020036101000a031916815260200191505b50848103835286818151815260200191508051906020019060200280838360005b8381101561018857808201518184015260208101905061016d565b50505050905001848103825285818151815260200191508051906020019060200280838360005b838110156101ca5780820151818401526020810190506101af565b505050509050019a505050505050505050505060405180910390f35b610368600480360360e08110156101fc57600080fd5b81019080803590602001909291908035906020019064010000000081111561022357600080fd5b82018360208201111561023557600080fd5b8035906020019184600183028401116401000000008311171561025757600080fd5b91908080601f016020809104026020016040519081016040528093929190818152602001838380828437600081840152601f19601f820116905080830192505050505050509192919290803590602001906401000000008111156102ba57600080fd5b8201836020820111156102cc57600080fd5b803590602001918460208302840111640100000000831117156102ee57600080fd5b919080806020026020016040519081016040528093929190818152602001838360200280828437600081840152601f19601f820116905080830192505050505050509192919290803590602001909291908035906020019092919080359060200190929190803560ff1690602001909291905050506108d9565b005b6103966004803603602081101561038057600080fd5b8101908080359060200190929190505050610c00565b604051808215151515815260200191505060405180910390f35b6103fc600480360360408110156103c657600080fd5b8101908080359060200190929190803573ffffffffffffffffffffffffffffffffffffffff169060200190929190505050610c69565b604051808215151515815260200191505060405180910390f35b6104626004803603604081101561042c57600080fd5b8101908080359060200190929190803573ffffffffffffffffffffffffffffffffffffffff169060200190929190505050610cd3565b604051808673ffffffffffffffffffffffffffffffffffffffff1673ffffffffffffffffffffffffffffffffffffffff1681526020018581526020018481526020018060200183151515158152602001828103825284818151815260200191508051906020019080838360005b838110156104ea5780820151818401526020810190506104cf565b50505050905090810190601f1680156105175780820380516001836020036101000a031916815260200191505b50965050505050505060405180910390f35b61062d600480360360c081101561053f57600080fd5b81019080803573ffffffffffffffffffffffffffffffffffffffff169060200190929190803590602001909291908035906020019092919080359060200190929190803560ff169060200190929190803590602001906401000000008111156105a757600080fd5b8201836020820111156105b957600080fd5b803590602001918460018302840111640100000000831117156105db57600080fd5b91908080601f016020809104026020016040519081016040528093929190818152602001838380828437600081840152601f19601f820116905080830192505050505050509192919290505050610ee1565b005b600080600080606080606061064261197d565b6000808a81526020019081526020016000206040518060e00160405290816000820160009054906101000a900473ffffffffffffffffffffffffffffffffffffffff1673ffffffffffffffffffffffffffffffffffffffff1673ffffffffffffffffffffffffffffffffffffffff168152602001600182015481526020016002820154815260200160038201548152602001600482018054600181600116156101000203166002900480601f01602080910402602001604051908101604052809291908181526020018280546001816001161561010002031660029004801561076c5780601f106107415761010080835404028352916020019161076c565b820191906000526020600020905b81548152906001019060200180831161074f57829003601f168201915b50505050508152602001600582018054806020026020016040519081016040528092919081815260200182805480156107fa57602002820191906000526020600020905b8160009054906101000a900473ffffffffffffffffffffffffffffffffffffffff1673ffffffffffffffffffffffffffffffffffffffff16815260200190600101908083116107b0575b505050505081526020016006820180548060200260200160405190810160405280929190818152602001828054801561088857602002820191906000526020600020905b8160009054906101000a900473ffffffffffffffffffffffffffffffffffffffff1673ffffffffffffffffffffffffffffffffffffffff168152602001906001019080831161083e575b5050505050815250509050806000015181602001518260400151836060015184608001518560a001518660c00151829250819150809050975097509750975097509750975050919395979092949650565b836000801b6000808381526020019081526020016000206003015414610967576040517f08c379a00000000000000000000000000000000000000000000000000000000081526004018080602001828103825260148152602001807f48617368206d75737420626520756e697175652e00000000000000000000000081525060200191505060405180910390fd5b87428111806109765750600081145b6109cb576040517f08c379a0000000000000000000000000000000000000000000000000000000008152600401808060200182810382526039815260200180611d136039913960400191505060405180910390fd5b8585858560606040518060400160405280601c81526020017f19457468657265756d205369676e6564204d6573736167653a0a3332000000008152509050600081866040516020018083805190602001908083835b60208310610a435780518252602082019150602081019050602083039250610a20565b6001836020036101000a038019825116818451168082178552505050505050905001828152602001925050506040516020818303038152906040528051906020012090503373ffffffffffffffffffffffffffffffffffffffff1660018285888860405160008152602001604052604051808581526020018460ff1660ff1681526020018381526020018281526020019450505050506020604051602081039080840390855afa158015610afb573d6000803e3d6000fd5b5050506020604051035173ffffffffffffffffffffffffffffffffffffffff1614610b8e576040517f08c379a000000000000000000000000000000000000000000000000000000000815260040180806020018281038252601d8152602001807f5369676e617475726520766572696669636174696f6e206661696c656400000081525060200191505060405180910390fd5b610b9a8f8f8f8f610f12565b610bef576040517f08c379a0000000000000000000000000000000000000000000000000000000008152600401808060200182810382526046815260200180611c8d6046913960600191505060405180910390fd5b505050505050505050505050505050565b600080600083815260200190815260200160002060070160003373ffffffffffffffffffffffffffffffffffffffff1673ffffffffffffffffffffffffffffffffffffffff16815260200190815260200160002060009054906101000a900460ff169050919050565b600080600084815260200190815260200160002060090160008373ffffffffffffffffffffffffffffffffffffffff1673ffffffffffffffffffffffffffffffffffffffff16815260200190815260200160002060009054906101000a900460ff16905092915050565b600080600060606000610ce46119d3565b60008089815260200190815260200160002060080160008873ffffffffffffffffffffffffffffffffffffffff1673ffffffffffffffffffffffffffffffffffffffff1681526020019081526020016000206040518060800160405290816000820160009054906101000a900473ffffffffffffffffffffffffffffffffffffffff1673ffffffffffffffffffffffffffffffffffffffff1673ffffffffffffffffffffffffffffffffffffffff1681526020016001820154815260200160028201548152602001600382018054600181600116156101000203166002900480601f016020809104026020016040519081016040528092919081815260200182805460018160011615610100020316600290048015610e445780601f10610e1957610100808354040283529160200191610e44565b820191906000526020600020905b815481529060010190602001808311610e2757829003601f168201915b505050505081525050905060008060008a815260200190815260200160002060090160008973ffffffffffffffffffffffffffffffffffffffff1673ffffffffffffffffffffffffffffffffffffffff16815260200190815260200160002060009054906101000a900460ff1690508160000151826020015183604001518460600151848191509650965096509650965050509295509295909350565b610eeb86866110d9565b610ef457600080fd5b610f0185858585856115cd565b610f0a57600080fd5b505050505050565b6000806000808481526020019081526020016000209050338160000160006101000a81548173ffffffffffffffffffffffffffffffffffffffff021916908373ffffffffffffffffffffffffffffffffffffffff16021790555042816001018190555085816002018190555082816003018190555084816004019080519060200190610f9f929190611a14565b5083816005019080519060200190610fb8929190611a94565b5060018451141561103657600181600701600086600081518110610fd857fe5b602002602001015173ffffffffffffffffffffffffffffffffffffffff1673ffffffffffffffffffffffffffffffffffffffff16815260200190815260200160002060006101000a81548160ff0219169083151502179055506110cc565b6001845111156110cb5760008090505b84518110156110c957600182600701600087848151811061106357fe5b602002602001015173ffffffffffffffffffffffffffffffffffffffff1673ffffffffffffffffffffffffffffffffffffffff16815260200190815260200160002060006101000a81548160ff0219169083151502179055508080600101915050611046565b505b5b6001915050949350505050565b60006110e361197d565b6000808481526020019081526020016000206040518060e00160405290816000820160009054906101000a900473ffffffffffffffffffffffffffffffffffffffff1673ffffffffffffffffffffffffffffffffffffffff1673ffffffffffffffffffffffffffffffffffffffff168152602001600182015481526020016002820154815260200160038201548152602001600482018054600181600116156101000203166002900480601f01602080910402602001604051908101604052809291908181526020018280546001816001161561010002031660029004801561120d5780601f106111e25761010080835404028352916020019161120d565b820191906000526020600020905b8154815290600101906020018083116111f057829003601f168201915b505050505081526020016005820180548060200260200160405190810160405280929190818152602001828054801561129b57602002820191906000526020600020905b8160009054906101000a900473ffffffffffffffffffffffffffffffffffffffff1673ffffffffffffffffffffffffffffffffffffffff1681526020019060010190808311611251575b505050505081526020016006820180548060200260200160405190810160405280929190818152602001828054801561132957602002820191906000526020600020905b8160009054906101000a900473ffffffffffffffffffffffffffffffffffffffff1673ffffffffffffffffffffffffffffffffffffffff16815260200190600101908083116112df575b5050505050815250509050806060015183146113ad576040517f08c379a000000000000000000000000000000000000000000000000000000000815260040180806020018281038252601f8152602001807f4661696c656420746f2076657269667920646f63756d656e7420686173682e0081525060200191505060405180910390fd5b8373ffffffffffffffffffffffffffffffffffffffff16816000015173ffffffffffffffffffffffffffffffffffffffff1614611435576040517f08c379a0000000000000000000000000000000000000000000000000000000008152600401808060200182810382526021815260200180611c6c6021913960400191505060405180910390fd5b428160400151118061144b575060008160400151145b6114a0576040517f08c379a0000000000000000000000000000000000000000000000000000000008152600401808060200182810382526030815260200180611c3c6030913960400191505060405180910390fd5b60008084815260200190815260200160002060090160003373ffffffffffffffffffffffffffffffffffffffff1673ffffffffffffffffffffffffffffffffffffffff16815260200190815260200160002060009054906101000a900460ff1615611556576040517f08c379a0000000000000000000000000000000000000000000000000000000008152600401808060200182810382526040815260200180611cd36040913960400191505060405180910390fd5b60008160a0015151146115c25761156c83610c00565b6115c1576040517f08c379a0000000000000000000000000000000000000000000000000000000008152600401808060200182810382526035815260200180611c076035913960400191505060405180910390fd5b5b600191505092915050565b60008585858560606040518060400160405280601c81526020017f19457468657265756d205369676e6564204d6573736167653a0a3332000000008152509050600081866040516020018083805190602001908083835b602083106116475780518252602082019150602081019050602083039250611624565b6001836020036101000a038019825116818451168082178552505050505050905001828152602001925050506040516020818303038152906040528051906020012090503373ffffffffffffffffffffffffffffffffffffffff1660018285888860405160008152602001604052604051808581526020018460ff1660ff1681526020018381526020018281526020019450505050506020604051602081039080840390855afa1580156116ff573d6000803e3d6000fd5b5050506020604051035173ffffffffffffffffffffffffffffffffffffffff1614611792576040517f08c379a000000000000000000000000000000000000000000000000000000000815260040180806020018281038252601d8152602001807f5369676e617475726520766572696669636174696f6e206661696c656400000081525060200191505060405180910390fd5b60008060008e815260200190815260200160002090506117b06119d3565b60405180608001604052803373ffffffffffffffffffffffffffffffffffffffff1681526020014281526020018f81526020018b8152509050808260080160003373ffffffffffffffffffffffffffffffffffffffff1673ffffffffffffffffffffffffffffffffffffffff16815260200190815260200160002060008201518160000160006101000a81548173ffffffffffffffffffffffffffffffffffffffff021916908373ffffffffffffffffffffffffffffffffffffffff160217905550602082015181600101556040820151816002015560608201518160030190805190602001906118a2929190611b1e565b50905050816006013390806001815401808255809150509060018203906000526020600020016000909192909190916101000a81548173ffffffffffffffffffffffffffffffffffffffff021916908373ffffffffffffffffffffffffffffffffffffffff1602179055505060018260090160003373ffffffffffffffffffffffffffffffffffffffff1673ffffffffffffffffffffffffffffffffffffffff16815260200190815260200160002060006101000a81548160ff02191690831515021790555060019850505050505050505095945050505050565b6040518060e00160405280600073ffffffffffffffffffffffffffffffffffffffff1681526020016000815260200160008152602001600080191681526020016060815260200160608152602001606081525090565b6040518060800160405280600073ffffffffffffffffffffffffffffffffffffffff1681526020016000815260200160008019168152602001606081525090565b828054600181600116156101000203166002900490600052602060002090601f016020900481019282601f10611a5557805160ff1916838001178555611a83565b82800160010185558215611a83579182015b82811115611a82578251825591602001919060010190611a67565b5b509050611a909190611b9e565b5090565b828054828255906000526020600020908101928215611b0d579160200282015b82811115611b0c5782518260006101000a81548173ffffffffffffffffffffffffffffffffffffffff021916908373ffffffffffffffffffffffffffffffffffffffff16021790555091602001919060010190611ab4565b5b509050611b1a9190611bc3565b5090565b828054600181600116156101000203166002900490600052602060002090601f016020900481019282601f10611b5f57805160ff1916838001178555611b8d565b82800160010185558215611b8d579182015b82811115611b8c578251825591602001919060010190611b71565b5b509050611b9a9190611b9e565b5090565b611bc091905b80821115611bbc576000816000905550600101611ba4565b5090565b90565b611c0391905b80821115611bff57600081816101000a81549073ffffffffffffffffffffffffffffffffffffffff021916905550600101611bc9565b5090565b9056fe50726f76696465642061646472657373206e6f7420617574686f726973656420746f207369676e2074686520646f63756d656e742e4461746520616c726561647920657870697265642e205369676e696e6720697320646973616c6c6f776564206e6f772e4661696c656420746f207665726966792063726561746f7220616464726573732e446f63756d656e74206372656174696f6e2070726f63657373206661696c65642e20436865636b206966207468652070726f766964656420646174612069732076616c69642e416c7265616479207369676e65642062792074686973206163636f756e742e204d756c7469706c65207369676e696e67206973206e6f7420616c6c6f7765642e436f6e74726163742065787069727920646174652073686f756c642062652067726561746572207468616e2063757272656e742074696d652ea265627a7a72315820285550f0af08f56c43cd3fffedda8f697d3cd3bd38606de9284e9f8ae29ac17664736f6c63430005100032",
  "source": "pragma solidity ^0.5.0;\n\n/**\n* @dev Deploy Hash of the document/file  and let anyone or only authorized signers\n* to sign the hash of the deployed document thus completing document signature process.\n*/\ncontract SignTheDoc {\n\n  // Document data.\n  struct Creator {\n    address creatorAddress;\n    uint256 creationDate;\n    uint256 expiryDate;\n    bytes32 docHash;\n    bytes signature;\n    address[] authorisedSignerList;\n    address[] whoSigned;\n    mapping(address => bool) authorisedToSign;\n    mapping(address => Signer) signerInfo;\n    mapping(address => bool) signedOrNot;\n  }\n\n  // Signer Data.\n  struct Signer {\n    address signerAddress;\n    uint256 signedDate;\n    bytes32 docHash;\n    bytes signature;\n  }\n\n  // Hash of the data is linked to Creator Struct.\n  mapping(bytes32 => Creator) private _docData;\n\n  /**\n   * @dev Modifier to check if document already deployed.\n   */\n  modifier isDocHashUnique(bytes32 docHash) {\n    require(\n      _docData[docHash].docHash == bytes32(0),\n      'Hash must be unique.'\n    );\n    _;\n  }\n\n  /**\n   * @dev Modifier to check if supplied date already expired.\n   */\n  modifier isExpired(uint256 expiryDate) {\n    require(\n      expiryDate > block.timestamp || expiryDate == 0,\n      'Contract expiry date should be greater than current time.');\n    _;\n  }\n\n  /**\n   * @dev Modifier to check if the signature is valid.\n   */\n  modifier verifySignature(bytes32 hash, bytes32 r, bytes32 s, uint8 v) {\n    bytes memory prefix = \"\\x19Ethereum Signed Message:\\n32\";\n    bytes32 prefixedHash = keccak256(abi.encodePacked(prefix, hash));\n    require(ecrecover(prefixedHash, v, r, s) == msg.sender,\n      'Signature verification failed');\n    _;\n  }\n\n  /**\n   * @dev Checks following multiple validations:-\n   * - Checks if supplied document hash `signerDocHash` is correct and already deployed.\n   * - Checks if document `creator` address is correct with provided one.\n   * - Checks if document expiry date is valid. Throws if expiry date is less than current time.\n   * - Checks if sender has already signed the document. Throws if already signed.\n   * - Checks if sender has been added to authorised list. Throw if not authorised to sign.\n   *\n   * Returns true if all validation passed.\n   */\n  function _multipleValidations(address creator, bytes32 signerDocHash) private view returns(bool) {\n    Creator memory doc = _docData[signerDocHash];\n\n    // Checks if supplied document hash is correct and already deployed.\n    require(\n      signerDocHash == doc.docHash,\n      'Failed to verify document hash.'\n    );\n\n    // Checks if document creator address is correct with provided one.\n    require(\n      doc.creatorAddress == creator,\n      'Failed to verify creator address.'\n    );\n\n    // Checks if document expiry date is valid. Throws if expiry date is less than current time.\n    require(\n      (doc.expiryDate > block.timestamp) || (doc.expiryDate == 0),\n      'Date already expired. Signing is disallowed now.'\n    );\n\n    // Checks if sender has already signed the document. Throws if already signed.\n    require(\n      !(_docData[signerDocHash].signedOrNot[msg.sender]),\n      'Already signed by this account. Multiple signing is not allowed.'\n    );\n\n    // Checks if sender has been added to authorised list. Throw if not authorised to sign.\n    if (doc.authorisedSignerList.length != 0) {\n      require(\n        isAuthorised(signerDocHash),\n        'Provided address not authorised to sign the document.'\n      );\n    }\n\n    return true;\n  }\n\n  /**\n   * @dev Opens document for signing process by providing document hash `docHash`,\n   * `signature`, `authorisedSignerList` and valid ECDSA `signature` and it's data `r`, `s`\n   * and `v`.\n   * `_recordInitialDoc` method is called for final recording entry.\n   * Requirements:-\n   * - Generated document hash `docHash` must be unique.\n   * - Must provide valid `expiryDate`.\n   * - Provide ECDSA `signature` with data `r`, `s` and `v`, generated by signing document hash `docHash`\n   *   must be valid.\n   */\n  function createDocToSign(\n    uint256 expiryDate,\n    bytes memory signature,\n    address[] memory authorisedSignerList,\n    bytes32 docHash,\n    bytes32 r,\n    bytes32 s,\n    uint8 v\n  )\n  public\n  isDocHashUnique(docHash)\n  isExpired(expiryDate)\n  verifySignature(docHash, r, s, v) {\n    require(_recordInitialDoc(expiryDate, signature, authorisedSignerList, docHash),\n      'Document creation process failed. Check if the provided data is valid.');\n  }\n\n  /**\n   * @dev Records new document for signing process. Data are passed through\n   * `createDocToSign` method.\n   * Check `createDocToSign` method for parameters description.\n   * Returns true.\n   */\n  function _recordInitialDoc(\n    uint256 expiryDate,\n    bytes memory signature,\n    address[] memory authorisedSignerList,\n    bytes32 docHash\n  )\n  private returns (bool) {\n    Creator storage creator = _docData[docHash];\n\n    creator.creatorAddress = msg.sender;\n    creator.creationDate = block.timestamp;\n    creator.expiryDate = expiryDate;\n    creator.docHash = docHash;\n    creator.signature = signature;\n    creator.authorisedSignerList = authorisedSignerList;\n\n    if (authorisedSignerList.length == 1) {\n      creator.authorisedToSign[authorisedSignerList[0]] = true;\n    } else if (authorisedSignerList.length > 1) {\n      for (uint i = 0; i < authorisedSignerList.length; i++) {\n        creator.authorisedToSign[authorisedSignerList[i]] = true;\n      }\n    }\n\n    return true;\n  }\n\n  /**\n   * @dev Returns `creatorAddress`, `creationDate`, `expiryDate`, document hash `docHash`,\n   * valid `signature`, `authorisedSigners` list and `whoSigned` the document already of the\n   * provided registered hash of the document `regDocHash`.\n   */\n  function getDocData(bytes32 regDocHash)\n  external\n  view\n  returns (\n    address creatorAddress,\n    uint256 creationDate,\n    uint256 expiryDate,\n    bytes32 docHash,\n    bytes memory signature,\n    address[] memory authorisedSigners,\n    address[] memory whoSigned\n  ) {\n    Creator memory cr = _docData[regDocHash];\n    return (cr.creatorAddress, cr.creationDate, cr.expiryDate, cr.docHash, cr.signature, cr.authorisedSignerList, cr.whoSigned);\n  }\n\n  /**\n   * @dev Signer signs the hash `signerDocHash` of the document deployed by the `creator` address.\n   * Signer must provide valid ECDSA `signature` with it's data `r`, `s` and v.\n   * Signing the document and recording process is completed through `_publishSign` method.\n   * Requirements:-\n   * - Checks if supplied document hash `signerDocHash` is correct and already deployed.\n   * - Checks if document `creator` address is correct.\n   * - Checks if document `expiryDate` is valid.\n   * - Checks if signer has already signed the document.\n   * - Checks if signer has authority to sign the document.\n   */\n  function signTheDoc(address creator, bytes32 signerDocHash, bytes32 r, bytes32 s, uint8 v, bytes memory signature) public {\n    require(_multipleValidations(creator, signerDocHash));\n    require(_publishSign(signerDocHash, r, s, v, signature));\n  }\n\n  /**\n   * @dev Completes the signing process of given registered document hash `signerDocHash`, signer\n   * must provide valid EDSCA `signature` with it's data `r`, `s` and `v`.\n   * Requirements: -\n   * - Signer EDSCA `signature` with it's data `r`, `s` and `v` should be valid.\n   *\n   * Returns true.\n   */\n  function _publishSign(bytes32 signerDocHash, bytes32 r, bytes32 s, uint8 v, bytes memory signature)\n  private\n  verifySignature(signerDocHash, r, s, v)\n  returns (bool) {\n    Creator storage doc = _docData[signerDocHash];\n    Signer memory signer = Signer(msg.sender, block.timestamp, signerDocHash, signature);\n    doc.signerInfo[msg.sender] = signer;\n    doc.whoSigned.push(msg.sender);\n    doc.signedOrNot[msg.sender] = true;\n    return true;\n  }\n\n  /**\n   * @dev Returns true if sender is allowed to sign the document.\n   */\n  function isAuthorised(bytes32 docHash) public view returns (bool) {\n    return (_docData[docHash].authorisedToSign[msg.sender]);\n  }\n\n  /**\n  * @dev Check if deployed document hash `docHash` is already signed by `signer`.\n  * Return true if signed and vice-versa.\n  */\n  function isSigned(bytes32 docHash, address signer) external view returns (bool signed) {\n    return _docData[docHash].signedOrNot[signer];\n  }\n\n  /**\n  * @dev Returns 'signerAddress', `signedDate`, deployed document hash `docHash`,\n  * `signature` and if the document is `signedOrNot` by the `signer` for the registered\n  * document save as hash format `signerDocHash`.\n  */\n  function getSignerInfo(bytes32 signerDocHash, address signer)\n  external\n  view\n  returns (\n    address signerAddress,\n    uint256 signedDate,\n    bytes32 docHash,\n    bytes memory signature,\n    bool signedOrNot) {\n\n    Signer memory si = _docData[signerDocHash].signerInfo[signer];\n    bool signed = _docData[signerDocHash].signedOrNot[signer];\n    return (si.signerAddress, si.signedDate, si.docHash, si.signature, signed);\n  }\n}\n",
  "sourcePath": "/home/system32/mainProj/sign-the-doc/contracts/SignTheDoc.sol",
  "compiler": {
    "name": "solc",
    "version": "0.5.16+commit.9c3226ce.Emscripten.clang"
  },
  "schemaVersion": "3.0.23",
  "updatedAt": "2020-05-01T18:03:36.106Z",
  "devdoc": {
    "details": "Deploy Hash of the document/file  and let anyone or only authorized signers to sign the hash of the deployed document thus completing document signature process.",
    "methods": {
      "createDocToSign(uint256,bytes,address[],bytes32,bytes32,bytes32,uint8)": {
        "details": "Opens document for signing process by providing document hash `docHash`, `signature`, `authorisedSignerList` and valid ECDSA `signature` and it's data `r`, `s` and `v`. `_recordInitialDoc` method is called for final recording entry. Requirements:- - Generated document hash `docHash` must be unique. - Must provide valid `expiryDate`. - Provide ECDSA `signature` with data `r`, `s` and `v`, generated by signing document hash `docHash`  must be valid."
      },
      "getDocData(bytes32)": {
        "details": "Returns `creatorAddress`, `creationDate`, `expiryDate`, document hash `docHash`, valid `signature`, `authorisedSigners` list and `whoSigned` the document already of the provided registered hash of the document `regDocHash`."
      },
      "getSignerInfo(bytes32,address)": {
        "details": "Returns 'signerAddress', `signedDate`, deployed document hash `docHash`, `signature` and if the document is `signedOrNot` by the `signer` for the registered document save as hash format `signerDocHash`."
      },
      "isAuthorised(bytes32)": {
        "details": "Returns true if sender is allowed to sign the document."
      },
      "isSigned(bytes32,address)": {
        "details": "Check if deployed document hash `docHash` is already signed by `signer`. Return true if signed and vice-versa."
      },
      "signTheDoc(address,bytes32,bytes32,bytes32,uint8,bytes)": {
        "details": "Signer signs the hash `signerDocHash` of the document deployed by the `creator` address. Signer must provide valid ECDSA `signature` with it's data `r`, `s` and v. Signing the document and recording process is completed through `_publishSign` method. Requirements:- - Checks if supplied document hash `signerDocHash` is correct and already deployed. - Checks if document `creator` address is correct. - Checks if document `expiryDate` is valid. - Checks if signer has already signed the document. - Checks if signer has authority to sign the document."
      }
    }
  },
  "userdoc": {
    "methods": {}
  }
}